:020000040800F2
:100000007098002055020008BD100008750900080E
:10001000B910000879040008A923000800000000B6
:100020000000000000000000000000009D0100082A
:100030007D04000800000000F10100082D160008F2
:100040006F0200086F0200086F0200086F020008CC
:100050006F0200086F0200086F0200086F020008BC
:100060006F0200086F0200086F0200086F020008AC
:100070006F0200086F0200086F0200086F0200089C
:100080006F0200086F0200086F0200086F0200088C
:100090006F0200086F0200086F0200086F0200087C
:1000A0006F0200086F0200086F0200086F0200086C
:1000B0006F020008B51600086F0200086F02000802
:1000C0006F0200086F0200086F0200086F0200084C
:1000D0006F0200086F0200086F0200086F0200083C
:1000E0006F0200086F0200086F0200086F0200082C
:1000F0006F0200086F0200086F0200086F0200081C
:100100006F0200086F0200086F0200086F0200080B
:100110006F0200086F0200086F0200086F020008FB
:100120006F0200086F0200086F0200086F020008EB
:100130006F0200086F0200086F0200086F020008DB
:100140006F0200086F0200086F0200086F020008CB
:100150006F0200086F0200086F0200086F020008BB
:100160006F0200086F0200086F0200086F020008AB
:100170006F0200086F0200086F0200086F0200089B
:100180006F0200086F020008DFF80CD000F09CF846
:1001900000480047D92B0008709800202A4B1968A6
:1001A0000868B0E8F04F80F30988BFF36F8F4FF015
:1001B000000080F3118870470000000006480068C6
:1001C000006880F3088862B661B6BFF34F8FBFF353
:1001D0006F8F00DF00BF00BF08ED00E0DFF80C000C
:1001E000016841F470010160704700BF88ED00E0D4
:1001F000EFF30980BFF36F8F134B1A681EF0100FD7
:1002000008BF20ED108A20E9F04F106008B44FF0CD
:10021000500080F31188BFF34F8FBFF36F8F04F04E
:10022000F5F84FF0000080F3118808BC19680868E1
:10023000B0E8F04F1EF0100F08BFB0EC108A80F34A
:100240000988BFF36F8F704794000020EFF305809B
:10025000704700000648804706480047FEE7FEE773
:10026000FEE7FEE7FEE7FEE7FEE7FEE7FEE7FEE766
:100270004D1600088901000840EA01039B0703D0DE
:1002800009E008C9121F08C0042AFAD203E011F8D5
:10029000013B00F8013B521EF9D2704730B50B46C6
:1002A000014600202022012409E021FA02F59D42A6
:1002B00005D303FA02F5491B04FA02F52844151E7A
:1002C000A2F10102F1DC30BD064C074D06E0E0680A
:1002D00040F0010394E8070098471034AC42F6D38D
:1002E000FFF756FF84530008A45300081CB50124EF
:1002F00003F01AFD03220021012004F0A3F9214993
:1003000008600846006810B11FA002F04FF80022F4
:100310001221082004F096F9254908602548022199
:1003200000230A02CDE9001023A1274804F046FD6E
:100330000446012C03D125A002F038F802E02BA0DE
:1003400002F034F83148032100234FF40072CDE964
:1003500000102FA1314804F031FD0446012C03D1D7
:100360002FA002F023F802E034A002F01FF83A4870
:10037000006803F081FE39A002F018F803F016FDC2
:100380001CBD00006400002053656D52656164442B
:100390006174615F48616E646C652063726561744D
:1003A0006520737563636565642E0D0A00000000A7
:1003B000680000205C0000205461736B5F5265612F
:1003C0006444617461000000F11E00085461736BA5
:1003D0005F52656164446174612063726561746534
:1003E000207375636565642E0D0A00005461736B9C
:1003F0005F52656164446174612063726561746514
:10040000206661696C65642E0D0A000060000020A2
:100410005461736B5F41485253000000A51D0008F2
:100420005461736B5F414852532063726561746518
:10043000207375636565642E0D0A00005461736B4B
:100440005F4148525320637265617465206661693B
:100450006C65642E0D0A0000580000204170705435
:1004600061736B4372656174652064656C65746566
:10047000642E0D0A0000000000BFFEE77047000078
:100480002DE9F04104460D4600260027B04660489D
:1004900084421DD05F4884421AD05F48844217D0FE
:1004A0005E48844214D05E48844211D05D48844244
:1004B0000ED05D4884420BD05C48844208D05C4832
:1004C000844205D05B48844202D05B48844201D11B
:1004D000012000E0002020B9CF2258A167A001F040
:1004E00065FF288880B208B1012000E0002020B913
:1004F000D02252A161A001F059FF287940B128799A
:10050000012805D02879022802D02879032801D1B2
:10051000012000E0002020B9D12248A157A001F01D
:1005200045FFE87928B1E879012802D0E879022866
:1005300001D1012000E0002020B9D2223FA14FA02C
:1005400001F034FF00265FE0012000FA06F728687A
:1005500000EA0708B84556D120687200032191408F
:100560008843206028797100884021680843206012
:100570002879012802D02879022838D1687940B139
:100580006879012805D06879022802D068790328A3
:1005900001D1012000E0002020B9E42227A137A0EA
:1005A00001F004FFA0687200032191408843A0601D
:1005B000687971008840A1680843A060A87910B1EB
:1005C000A879012801D1012000E0002020B9EB2208
:1005D0001AA12AA001F0EAFE61680120B04081431F
:1005E00061606168A879B04080B201436160E068F1
:1005F0007200032191408843E060E87971008840EF
:10060000E1680843E060761C102E9DD3BDE8F081C0
:10061000000002400004024000080240000C0240BA
:10062000001002400014024000180240001C02406A
:100630000020024000240240002802402E2E5C4C84
:1006400069627261726965735C53544D333246342A
:1006500078785F5374645065726970685F4472693A
:100660007665725C7372635C73746D333266347872
:10067000785F6770696F2E63000000004572726FCB
:10068000723A25732C25640D0A0000002DE9F04113
:1006900006460D4614460027B8465A4886421DD0E5
:1006A000594886421AD05948864217D0584886423F
:1006B00014D05848864211D0574886420ED0574829
:1006C00086420BD05648864208D05648864205D00E
:1006D0005548864202D05548864201D1012000E0AB
:1006E000002028B940F2492251A161A001F05EFE2C
:1006F000EDB1012D1BD0022D19D0032D17D0042DE3
:1007000015D0052D13D0062D11D0072D0FD0082D93
:100710000DD0092D0BD00A2D09D00B2D07D00C2D93
:1007200005D00D2D03D00E2D01D00F2D01D10120AC
:1007300000E0002028B940F24A223DA14CA001F07F
:1007400035FEA4B3092C32D08CB384B37CB374B31C
:10075000012C2CD02BD0022C29D028D027D0032C30
:1007600025D0042C23D022D021D0052C1FD01ED080
:10077000092C1CD0062C1AD0092C18D0072C16D006
:1007800015D014D0082C12D011D010D0092C0ED0B6
:100790000DD00A2C0BD00AD00B2C08D00C2C06D074
:1007A00005D00D2C03D00F2C01D00C2C01D1012031
:1007B00000E0002028B940F24B221DA12CA001F03E
:1007C000F5FD6807C00E04FA00F7E91006F12000F5
:1007D00050F821006907CA0E0F2191408843EA10A2
:1007E00006F1200141F82200E91006F1200050F83E
:1007F000210040EA0708E91006F1200040F82180B6
:10080000BDE8F08100000240000402400008024000
:10081000000C024000100240001402400018024088
:10082000001C024000200240002402400028024038
:100830002E2E5C4C69627261726965735C53544D13
:100840003332463478785F537464506572697068E7
:100850005F4472697665725C7372635C73746D3346
:1008600032663478785F6770696F2E63000000002D
:100870004572726F723A25732C25640D0A000000D0
:1008800070B504460D461C4884421DD01B48844266
:100890001AD01B48844217D01A48844214D01A48F0
:1008A000844211D0194884420ED0194884420BD09A
:1008B0001848844208D01848844205D0174884421A
:1008C00002D01748844201D1012000E0002028B95D
:1008D00040F29F1213A123A001F068FDA8B208B155
:1008E000012000E0002028B94FF4D0720DA11DA016
:1008F00001F05CFD258370BD000002400004024051
:1009000000080240000C02400010024000140240A7
:1009100000180240001C0240002002400024024057
:10092000002802402E2E5C4C696272617269657308
:100930005C53544D3332463478785F537464506559
:10094000726970685F4472697665725C7372635C29
:1009500073746D3332663478785F6770696F2E63B5
:10096000000000004572726F723A25732C25640DE9
:100970000A00000000BFFEE71CB50121022000F0C4
:100980006BFC4FF44060009001208DF804000020C3
:100990008DF8060003208DF8050001208DF8070072
:1009A00069460548FFF76CFD0120044908600449C9
:1009B000C1F8AC021CBD000000040240A882404205
:1009C000008040421CB50121042000F045FC4FF49A
:1009D0004040009001208DF8040000208DF80600B2
:1009E00001208DF8070000208DF8050069460448B5
:1009F000FFF746FD4FF440410148FFF741FF1CBDA2
:100A00000008024008B5FFF7B7FFC82003F0F8FA66
:100A100080226B21682000F039F908B1012008BD5F
:100A2000642003F0EDFA00226B21682000F02EF91B
:100A300008B10120F3E77521682000F0C9F80090A3
:100A40009DF80000712818D1032002F061FD08B163
:100A50000120E4E7022002F023FD08B10120DEE7D7
:100A60004FF47A7002F07BFD08B10120D7E72A200D
:100A700002F057FD18B10120D1E70120CFE7012096
:100A800002F017FD08B10120C9E700210C2000F099
:100A90009FF800909DF80000482807D116220A21EF
:100AA0000C2000F0F3F818B10120B8E70120B6E7F8
:100AB0000020B4E770B588B004460D46164604AB76
:100AC0000E223B21682000F0A7F88DF80C009DF85D
:100AD0000C00C0BB9DF811009DF8101040EA0120E9
:100AE00000B220809DF813009DF8121040EA01200A
:100AF00000B260809DF815009DF8141040EA0120B6
:100B000000B2A0809DF819009DF8181040EA01205D
:100B10002D490988401A00B228809DF81B009DF8D5
:100B20001A1040EA012028494988401A00B268801A
:100B30009DF81D009DF81C1040EA0120224989887B
:100B4000401A00B2A88002210C2000F041F878B3CE
:100B500001AB062203210C2000F05EF88DF80D0099
:100B600009210C2000F034F89DF80D0000BB9DF821
:100B700004009DF8051040EA012014490988401A34
:100B800000B230809DF806009DF8071040EA012071
:100B90000E494988401A00B270809DF808009DF8FF
:100BA000091040EA012009498988401A00B2B08042
:100BB0009DF80C0028B19DF80D0010B1012008B07F
:100BC00070BD0020FBE700000000002006000020B0
:100BD00070B504460D4602F0A9FA002141EA44012D
:100BE000C8B202F06FFA02F0EDFA284602F06AFA93
:100BF00002F0E8FA02F09AFA012101EB4401C8B2CE
:100C000002F060FA02F0DEFA002002F025FA064651
:100C100002F0B2FA304670BD2DE9F04106460F46AB
:100C200014461D4602F082FA002141EA4601C8B28C
:100C300002F048FA02F0C6FA20B102F09DFA012053
:100C4000BDE8F081384602F03DFA02F0BBFA02F04E
:100C50006DFA012101EB4601C8B202F033FA02F04D
:100C6000B1FA0DE0012C04D1002002F0F5F9287052
:100C700003E0012002F0F0F92870601EC4B26D1C80
:100C8000002CEFD102F078FA0020D9E770B50446C5
:100C90000D46164602F04AFA002141EA4401C8B264
:100CA00002F010FA02F08EFA18B102F065FA012093
:100CB00070BD284602F006FA02F084FA304602F0CF
:100CC00001FA02F07FFA18B102F056FA0120EFE7BC
:100CD00002F052FA0020EBE700B52DED108B81B049
:100CE000F0EE404AB0EE605AF0EE415AF0EE613A52
:100CF000B0EE423AB0EE624AE94890ED000AB1EE39
:100D0000400A20EE240AE748D0ED000A00EEC50AAA
:100D1000E548D0ED000A00EEE50AF6EE000A20EE06
:100D2000200AF0EE40EAE14890ED000A20EE240AA5
:100D3000DC48D0ED000A00EEA50ADB48D0ED000A41
:100D400000EEC50AF6EE000A20EE200AB0EE40FAE8
:100D5000D64890ED000A20EE050AD148D0ED000AF1
:100D600000EEE50AD048D0ED000A00EEA40AF6EE47
:100D7000000A20EE200AF0EE40FACC4890ED000A7E
:100D800020EE250AC648D0ED000A00EE850AC548C7
:100D9000D0ED000A00EEE40AF6EE000A20EE200A8A
:100DA0008DED000AF5EEC03AF1EE10FA09D1B5EE7C
:100DB000C03AF1EE10FA04D1B5EEC04AF1EE10FAE5
:100DC0007DD063EEA30A43EE030A44EE040AB0EEBC
:100DD000600A01F0E3FEF0EE402A23EEA20AF0EEF4
:100DE000403A23EE220AB0EE403A24EE220AB0EE58
:100DF000404AAE4890ED000AF0EE000A20EE20AA2C
:100E0000A74890ED000AF0EE000A60EE20AAA5487F
:100E100090ED000AF0EE000A20EE20BAA24890ED14
:100E2000000AF0EE000A60EE20BAA04890ED000A39
:100E3000F1EE000A20EE20CA994890ED000AF1EE8A
:100E4000000A60EE208A974890ED000AF1EE000A51
:100E500020EE209A924890ED000AF2EE000A60EE31
:100E600020CA904890ED000AF2EE000A20EE20DA47
:100E70008E4890ED000AD0ED000A60EE20DA884836
:100E800090ED000AD0ED000A20EE206A854890ED32
:100E9000000AD0ED000A60EE206A834890ED000A57
:100EA000D0ED000A20EE20EA2CEE260A0BEE230AF3
:100EB0000CEE060A0AEEC30AF0EE409A00E087E064
:100EC00028EE8E0A0BEEE30AF1EE000A6DEEA00AA0
:100ED000734890ED001A00EE810A0AEE430A30EEE4
:100EE000680A0CEE860A0CEEA60A08EE840AB0EE3A
:100EF000407AB1EE000A2DEE800A6A48D0ED000A71
:100F000020EE200A0AEE230A09EE0E0A0BEEC30AAF
:100F100030EE490A0DEE060A0DEE260A09EE040A25
:100F2000F0EE407AB1EE000A26EE000A5E48D0EDFF
:100F3000000A20EE200A0AEEE30AF1EE000A66EE4D
:100F4000A00A90ED001A00EE810A0BEE430AB0EE03
:100F5000408A69EEA90A47EE070A47EEA70A48EE5B
:100F6000080AB0EE600A01F019FEF0EE402A29EE00
:100F7000A20AF0EE409A27EE220AB0EE407A27EE5F
:100F8000A20AF0EE407A28EE220AB0EE408A4848E3
:100F9000D0ED000AB0EE6E0A00EEE90AF0EE40EA8B
:100FA000D0ED000AB0EE4F0A00EEC70AB0EE40FAEC
:100FB000D0ED000AB0EE6F0A00EEE70AF0EE40FA5C
:100FC0009DED000AD0ED000A00EEC80A8DED000A82
:100FD000364890ED000ADFED370A0EEEA00A80EDEC
:100FE000000A2F4890ED000ADFED320A0FEE200ACA
:100FF00080ED000A2B4890ED000ADFED2E0A0FEE7F
:10100000A00A80ED000A2848D0ED000A9DED000AF4
:101010009FED281A40EE010AC0ED000A2348D0EDEA
:10102000000A90ED001A60EE810A1D4890ED001A4A
:10103000D0ED001A41EE210A1A4890ED001AD0EDC9
:10104000001A41EE210A184890ED001AD0ED001A5E
:1010500041EE210AB0EE600A01F0A0FDF0EE402A58
:10106000124890ED000A20EE220A80ED000A0C489A
:1010700090ED000A20EE220A80ED000A094890ED6A
:10108000000A20EE220A80ED000A074890ED000ACF
:1010900020EE220A80ED000A01B0BDEC108B00BDED
:1010A00024000020280000202C0000202000002028
:1010B0001C0000206F12033B00BFFEE770470000DA
:1010C0002DE9F0410446002500270F26E07810B1F5
:1010D000E078012801D1012000E0002020B98D2214
:1010E00026A133A001F062F96078102801DA01200E
:1010F00000E0002020B98E2220A12DA001F056F999
:10110000A078102801DA012000E0002020B98F2209
:101110001AA127A001F04AF9E07818B3284800681E
:1011200000F4E060C0F5E060C0F30725C5F10400FD
:10113000C7B22E416078B840C5B2A07830400543B0
:101140002807050E1F4821784554207800F01F011C
:101150000120884021784911890001F1E021C1F87E
:10116000000109E0207800F01F00012181401648AD
:101170002278521140F82210BDE8F0812E2E5C4CEE
:1011800069627261726965735C53544D33324634DF
:1011900078785F5374645065726970685F447269EF
:1011A0007665725C7372635C6D6973632E630000B5
:1011B0004572726F723A25732C25640D0A00000087
:1011C0000CED00E000E400E080E100E010B5044632
:1011D000B4F5E06F0BD0B4F5C06F08D0B4F5A06FD4
:1011E00005D0B4F5806F02D0B4F5407F01D1012065
:1011F00000E0002020B9792204A111A001F0D6F866
:10120000134820431349086010BD00002E2E5C4C8B
:1012100069627261726965735C53544D333246344E
:1012200078785F5374645065726970685F4472695E
:101230007665725C7372635C6D6973632E63000024
:101240004572726F723A25732C25640D0A000000F6
:101250000000FA050CED00E070B504460D46144898
:10126000204010B90CB1012000E0002028B940F264
:10127000017210A11EA001F099F80DB1012D01D14C
:10128000012000E0002028B940F2037209A118A053
:1012900001F08CF82DB11A48006820431849086005
:1012A00004E017480068A0431549086070BD0000BD
:1012B00000E80B812E2E5C4C696272617269657365
:1012C0005C53544D3332463478785F5374645065C0
:1012D000726970685F4472697665725C7372635C90
:1012E00073746D3332663478785F7263632E630093
:1012F0004572726F723A25732C25640D0A00000046
:101300003038024070B504460D4604F4585010B908
:101310000CB1012000E0002028B940F277720FA143
:101320001DA001F043F80DB1012D01D1012000E015
:10133000002028B94FF4EF6208A117A001F036F899
:101340002DB11948006820431749086004E0164889
:101350000068A0431449086070BD00002E2E5C4C4C
:1013600069627261726965735C53544D33324634FD
:1013700078785F5374645065726970685F4472690D
:101380007665725C7372635C73746D333266347845
:10139000785F7263632E63004572726F723A2573D1
:1013A0002C25640D0A0000004038024070B5044648
:1013B0000D461448204010B90CB1012000E0002077
:1013C00028B940F2A57210A11EA000F0EFFF0DB1E8
:1013D000012D01D1012000E0002028B940F2A672C1
:1013E00009A118A000F0E2FF2DB11A4800682043BF
:1013F0001849086004E017480068A04315490860D0
:1014000070BD0000CC8008F32E2E5C4C69627261C6
:10141000726965735C53544D3332463478785F5348
:1014200074645065726970685F4472697665725C55
:101430007372635C73746D3332663478785F726391
:10144000632E63004572726F723A25732C25640D0A
:101450000A00000044380240F0B5002100220024B8
:10146000022500260223324F3F6807F00C0121B10C
:10147000042905D0082937D105E02E4F076036E052
:101480002D4F076033E02A4F3F1F3F68C7F3805658
:10149000274F3F1F3F6807F03F036EB1264FB7FB52
:1014A000F3F7DFF88CC0ACF1040CDCF800C0CCF32F
:1014B000881C07FB0CF40CE01E4FB7FBF3F7DFF8BA
:1014C00070C0ACF1040CDCF800C0CCF3881C07FB46
:1014D0000CF4174F3F1F3F68C7F301477F1C7D0087
:1014E000B4FBF5F7076002E0124F076000BF00BFD2
:1014F0000F4F3F6807F0F0010909104F7A5C076849
:10150000D74047600A4F3F6807F4E051890A0B4F04
:101510007A5C4768D7408760054F3F6807F46041B1
:10152000490B064F7A5C4768D740C760F0BD0000A2
:10153000083802400024F40000127A00E400002081
:101540000CB50020019000903448006840F48030D1
:101550003249086000BF3148006800F40030009054
:101560000198401C0190009818B90198B0F5A04F5F
:10157000F1D12A48006800F4003010B10120009039
:1015800001E0002000900098012846D12348403017
:10159000006840F0805021494031086020480068D0
:1015A00040F440401E4908601C48083000681B4950
:1015B000083108600846006840F4004008600846AA
:1015C000006840F4A05008601648091F0860081F12
:1015D000006840F08070091F086000BF0F48006875
:1015E00000F000700028F9D040F205700E49086044
:1015F0000A480830006820F00300084908310860F4
:101600000846006840F00200086000BF0348083048
:10161000006800F00C000828F8D10CBD003802402A
:101620000070004008544007003C024010B50648D6
:101630000068401C0449086003F0F0FB012801D059
:1016400002F0E6FF10BD00006C00002010B5154848
:10165000006840F47000134908601348006840F0C7
:1016600001001149086000200F49083108600E4848
:1016700000680E4908400C4908600D48091D0860C3
:10168000081F006820F48020091F08600020064918
:101690000C310860FFF754FF4FF0006001498039BA
:1016A000086010BD88ED00E000380240FFFFF6FE44
:1016B0001030002408B50020009001210C4800F0F3
:1016C00057F9012804D169460A48006803F0A4FAD2
:1016D0000121074800F042F8009838B14FF08050DF
:1016E00005490860BFF34F8FBFF36F8F08BD00003F
:1016F000000400406400002004ED00E01FB501215B
:101700000220FFF7FFFD1420029042F2CF00ADF857
:1017100004000020ADF80600ADF80C0001A90E4849
:1017200000F068FA012211460B4800F0C7F90121C8
:10173000094800F08DF81D208DF8000006208DF876
:10174000010000208DF8020001208DF8030068469A
:10175000FFF7B6FC1FBD00000004004070B5044652
:101760000D461B48844226D0B4F1804F23D019483F
:10177000844220D0184884421DD0184884421AD090
:101780001748844217D01748844214D01648844220
:1017900011D0164884420ED0154884420BD015480B
:1017A000844208D01448844205D01448844202D0B0
:1017B0001348844201D1012000E0002028B940F6FE
:1017C000FD1210A11EA000F0F1FDE843208270BDC3
:1017D000000001400004004000080040000C0040F0
:1017E000001000400014004000040140004001408F
:1017F000004401400048014000180040001C004027
:10180000002000402E2E5C4C696272617269657323
:101810005C53544D3332463478785F53746450656A
:10182000726970685F4472697665725C7372635C3A
:1018300073746D3332663478785F74696D2E63002B
:101840004572726F723A25732C25640D0A000000F0
:1018500070B504460D462648844226D0B4F1804F28
:1018600023D02448844220D0234884421DD02348DA
:1018700084421AD02248844217D02248844214D08D
:101880002148844211D0214884420ED0204884420D
:101890000BD02048844208D01F48844205D01F48FE
:1018A000844202D01E48844201D1012000E0002081
:1018B00028B940F253221BA129A000F077FD0DB1F9
:1018C000012D01D1012000E0002028B94FF415724C
:1018D00014A123A000F06AFD25B1208840F001008A
:1018E000208004E020884FF6FE710840208070BD03
:1018F000000001400004004000080040000C0040CF
:10190000001000400014004000040140004001406D
:10191000004401400048014000180040001C004005
:10192000002000402E2E5C4C696272617269657302
:101930005C53544D3332463478785F537464506549
:10194000726970685F4472697665725C7372635C19
:1019500073746D3332663478785F74696D2E63000A
:101960004572726F723A25732C25640D0A000000CF
:101970002DE9F04104460D4600260027B0462F48C9
:10198000844226D0B4F1804F23D02D48844220D009
:101990002C4884421DD02C4884421AD02B488442C3
:1019A00017D02B48844214D02A48844211D02A48A8
:1019B00084420ED0294884420BD02948844208D062
:1019C0002848844205D02848844202D027488442CF
:1019D00001D1012000E0002028B940F6D61224A150
:1019E00032A000F0E3FC012D0DD0022D0BD0042D10
:1019F00009D0082D07D0102D05D0202D03D0402D63
:101A000001D0802D01D1012000E0002028B940F64E
:101A1000D71217A125A000F0C9FC208A00EA05070B
:101A2000A08900EA050827B1B8F1000F01D001260E
:101A300000E000263046BDE8F081000000000140D3
:101A40000004004000080040000C0040001000406E
:101A500000140040000401400040014000440140E7
:101A60000048014000180040001C004000200040D9
:101A70002E2E5C4C69627261726965735C53544DC1
:101A80003332463478785F53746450657269706895
:101A90005F4472697665725C7372635C73746D33F4
:101AA00032663478785F74696D2E63004572726FA8
:101AB000723A25732C25640D0A00000070B50446A7
:101AC0000D4616462B48844226D0B4F1804F23D0D1
:101AD0002948844220D0294884421DD02848844285
:101AE0001AD02848844217D02748844214D0274867
:101AF000844211D0264884420ED0264884420BD01E
:101B00002548844208D02548844205D02448844290
:101B100002D02448844201D1012000E0002028B9ED
:101B200040F6471220A12FA000F040FC05F47F40B2
:101B300010B90DB1012000E0002028B940F648128C
:101B400019A128A000F032FC0EB1012E01D1012014
:101B500000E0002028B940F6491213A121A000F0AE
:101B600025FC1EB1A0892843A08102E0A089A843DA
:101B7000A08170BD0000014000040040000800404A
:101B8000000C004000100040001400400004014020
:101B9000004001400044014000480140001800405E
:101BA000001C0040002000402E2E5C4C69627261D7
:101BB000726965735C53544D3332463478785F53A1
:101BC00074645065726970685F4472697665725CAE
:101BD0007372635C73746D3332663478785F7469E2
:101BE0006D2E63004572726F723A25732C25640D59
:101BF0000A00000070B504460D460026494884429C
:101C000026D0B4F1804F23D04748844220D04748A3
:101C100084421DD0464884421AD04648844217D098
:101C20004548844214D04548844211D044488442F7
:101C30000ED0444884420BD04348844208D04348E5
:101C4000844205D04248844202D04248844201D1B5
:101C5000012000E0002028B940F225123EA14DA04D
:101C600000F0A4FB688858B16888102808D06888FC
:101C7000202805D06888402802D06888602801D1D3
:101C8000012000E0002028B94FF4937232A141A056
:101C900000F08CFB288938B12889B0F5807F03D00B
:101CA0002889B0F5007F01D1012000E0002028B98B
:101CB00040F2271228A137A000F078FB26881948A7
:101CC00084420ED01D4884420BD0B4F1804F08D01E
:101CD0001548844205D01548844202D014488442F5
:101CE00004D14FF68F70064068880643114884423D
:101CF00007D01148844204D04FF6FF40064028899F
:101D0000064326806868E06228882085054884426A
:101D100002D00A48844201D1A87A20860120A082FC
:101D200070BD0000000001400004004000080040B9
:101D3000000C00400010004000140040000401406E
:101D400000400140004401400048014000180040AC
:101D5000001C0040002000402E2E5C4C6962726125
:101D6000726965735C53544D3332463478785F53EF
:101D700074645065726970685F4472697665725CFC
:101D80007372635C73746D3332663478785F746930
:101D90006D2E63004572726F723A25732C25640DA7
:101DA0000A0000002DED068B86B08FE000235A1E3E
:101DB00001A94748006802F081FC01287ED1BDF9E5
:101DC000080000EE100AB8EEC00ADFED420A80EE0D
:101DD000201AB0EE418ABDF9060000EE100AB8EEF6
:101DE000C00ADFED3C0A80EE201AF0EE418ABDF910
:101DF000040000EE100AB8EEC00ADFED360A80EEED
:101E0000201AB0EE419ABDF90E0000EE100AF8EE6D
:101E1000C00A9FED311A80EE810ADFED300A20EE14
:101E2000200ADFED2F0A80EE201AF0EE419ABDF96C
:101E30000C0000EE100AF8EEC00A9FED271A80EEA3
:101E4000810ADFED260A20EE200ADFED250A80EE6A
:101E5000201AB0EE41AABDF90A0000EE100AF8EE11
:101E6000C00A9FED1D1A80EE810ADFED1C0A20EEEC
:101E7000200ADFED1B0A80EE201AF0EE41AAF0EEF8
:101E8000482AB0EE682AF0EE491AB0EE691AF0EE70
:101E90004A0AB0EE6A0AFEF71FFF00F071FD114812
:101EA0000068401C0F49086008460068642190FBE8
:101EB000F1F201FB12000B49086000E006E028B9CE
:101EC00009480068C0430949C1F8B8026EE700003C
:101ED0006800002000FF7F45EC118341C3F54840B6
:101EE0000000344318000020B80241420000414283
:101EF00010B586B00446FEF785FD00900098C0B985
:101F0000FFF7FCFB14E000235A1E19461248006834
:101F100002F0D4FB01280BD104AA911F01A8FEF7FF
:101F2000C9FD00231A4601A90C48006802F006FD0D
:101F3000E9E70B480068C0430A49C1F8BC020AA09F
:101F400000F034FA0F48006802F096F80EA000F096
:101F50002DFA06B010BD00006400002068000020CB
:101F6000BC024142000041424D50553932353020CB
:101F70005365747570206661696C65642E0D0A0D79
:101F80000A0000005C00002044656C657465205404
:101F900061736B2052656164494D550D0A00000064
:101FA00000B587B001210846FFF756F9012110203E
:101FB000FFF7FCF9072209211948FEF767FB072202
:101FC0000A211748FEF762FB4FF4C060059002201B
:101FD0008DF818008DF8190000208DF81A000120E6
:101FE0008DF81B0005A90E48FEF74AFA4FF4E130C0
:101FF00001900020ADF80800ADF80A00ADF80C0023
:10200000ADF810000C20ADF80E0001A9054800F055
:1020100081F80121034800F007F807B000BD000077
:10202000000002400010014070B504460D461D48F6
:10203000844214D01C48844211D01C4884420ED0E3
:102040001B4884420BD01B48844208D01A48844263
:1020500005D01A48844202D01948844201D1012097
:1020600000E0002028B94FF4D77216A125A000F097
:102070009DF90DB1012D01D1012000E0002028B90A
:1020800040F2AF120FA11FA000F090F925B1A08976
:1020900040F40050A08104E0A0894DF6FF71084093
:1020A000A08170BD00100140004400400048004085
:1020B000004C0040005000400014014000780040F7
:1020C000007C00402E2E5C4C6962726172696573FF
:1020D0005C53544D3332463478785F5374645065A2
:1020E000726970685F4472697665725C7372635C72
:1020F00073746D3332663478785F75736172742EE1
:10210000630000004572726F723A25732C25640DCE
:102110000A0000002DE9FF4705460C460026B1469F
:1021200000BFB0468348854214D08348854211D011
:10213000824885420ED0824885420BD08148854234
:1021400008D08148854205D08048854202D0804829
:10215000854201D1012000E0002020B9FE227DA1AE
:102160008CA000F023F9206828B18E4920688842AD
:1021700001D2012000E0002020B9FF2275A185A036
:1021800000F014F9A08818B1A088B0F5805F01D1E3
:10219000012000E0002028B94FF480726DA17DA0DD
:1021A00000F004F9E08858B1E088B0F5805F07D00E
:1021B000E088B0F5005F03D0E088B0F5405F01D162
:1021C000012000E0002028B940F2011261A171A0B5
:1021D00000F0ECF8208938B12089B0F5806F03D089
:1021E0002089B0F5C06F01D1012000E0002028B99E
:1021F0004FF4817257A167A000F0D8F860894FF6BC
:10220000F371084018B9608908B1012000E000208E
:1022100028B940F203124FA15EA000F0C7F8A089D0
:1022200058B1A089B0F5807F07D0A089B0F5007FB4
:1022300003D0A089B0F5407F01D1012000E000204B
:1022400028B94FF4827243A152A000F0AFF8A089E0
:10225000A8B13848854208D03748854205D037486C
:10226000854202D03848854201D1012000E000209B
:1022700028B940F2091237A146A000F097F82E8A3B
:1022800026F44056E08806432E82AE8941F20C6067
:102290008643A08821890843618908430643AE81AB
:1022A000AE8A26F44076A0890643AE826846FFF7E0
:1022B000D3F82048854202D02348854202D1DDF878
:1022C0000C9001E0DDF80890A88900F4004040B1CE
:1022D00009EBC90000EB091021684900B0FBF1F7D8
:1022E00007E009EBC90000EB091021688900B0FB89
:1022F000F1F76420B7FBF0F006013009642101FB1F
:102300001078A88900F4004040B1322000EBC800EA
:10231000B0FBF1F000F00700064308E0322000EBCC
:1023200008106421B0FBF1F000F00F0006432E818D
:10233000BDE8FF8700100140004400400048004015
:10234000004C004000500040001401400078004064
:10235000007C00402E2E5C4C69627261726965736C
:102360005C53544D3332463478785F53746450650F
:10237000726970685F4472697665725C7372635CDF
:1023800073746D3332663478785F75736172742E4E
:10239000630000004572726F723A25732C25640D3C
:1023A0000A000000E170720000BFFEE70FB4054BA9
:1023B00010B503A9044A029800F006FA10BC5DF8B3
:1023C00014FB0000812B00080801002041000802D6
:1023D00018BF04200A0E18BF40F001004FF07F42E2
:1023E00032EA010108BF40F00200012808BF0520C1
:1023F0007047000010B54FF00E402DED028BB0EE8F
:10240000408A18EE104A00EB4400B0F1506F4AD8F1
:102410004FF0FC40B0EB440F22D2B0EEC80AF7EE0A
:10242000000A30EEC00AF6EE000A60EE208A18EECE
:10243000900A01F00FFC01EE100A14F0004F1DBFCE
:10244000DFED2D0A9FED2D0AB1EE411ADFED2C0ACA
:1024500008BF9FED2C0AF8EE001A21EE218A05E054
:10246000DFED290A68EE088AB0EE600A9FED271AB0
:10247000DFED271A30EE080A48EE811A9FED251A83
:1024800008EEA11ADFED241A48EE811A9FED231AF7
:1024900008EEA11A68EE281ABDEC028B01EE810A43
:1024A00030EE200A10BD4FF0E440B0EB440F0CD9E1
:1024B00018EE100AFFF78AFF042808BF00F066F93B
:1024C000B0EE480ABDEC028B10BD4FF07F40B0EB80
:1024D000440F07D2B0EE480ABDEC028BBDE81040B5
:1024E00000F046B9012000F069F9BDEC028BBDE8AF
:1024F000104000F043B900000000C9BF22AAFDB996
:102500000000C93F22AAFD390000000024FE1C3D46
:10251000C78AD83C1E67383D1B93993DAFAA2A3E17
:1025200010EE100A10B510EE901A4FF0684202EB50
:1025300040032DED028BB3F1654F3CBF02EB41022E
:10254000B2F1654F7CD200BFC0F3C753C1F3C7528D
:102550009A1A1B2A09DD10F0004F14BF9FED6E0A76
:102560009FED6E0ABDEC028B10BD12F11A0F1BDA43
:1025700011F0004F09D010F0004F0CBF9FED680A1A
:102580009FED680ABDEC028B10BD80EE208A18EE2C
:10259000100AFFF71BFF042808BF00F0F7F8B0EEA1
:1025A000480ABDEC028B10BD4200B2EB410F37D997
:1025B00010F0004F19BFDFED5C1A9FED5C1ADFEDE4
:1025C0005C1A9FED5C1AB0EE602A0A46F1EE400AF2
:1025D00080F00041B0EE420A10460A1A5200B2F1F1
:1025E000807F34D2484010F0004FDFED532A9FED3A
:1025F000533A1DBFBEEE002A71EEE21A31EE431AC5
:10260000B6EE002A04BF71EEA21A31EE031AF0EE04
:10261000402A42EE602A40EE020A82EEA02A18E02A
:1026200011F0004F04BF9FED461AF0EE411AD4D0CE
:1026300010F0004F1CBFDFED431A9FED431A00E07E
:1026400026E004BFDFED411A9FED411AC5E780EE99
:10265000202A22EE020ADFED3F0ADFED3F2ABDEC21
:10266000028B40EE202ADFED3D0A40EE220ADFED2C
:102670003C2A40EE202ADFED3B0A40EE220A22EE01
:10268000000A00EE201A31EE020A30EE210A10BDD7
:102690004FF07F42B2EB400F28BFB2EB410F05D2A3
:1026A000BDEC028BBDE8104000F065B840EA0103C4
:1026B0005B0008BF41F0FF410BD0B2EB400F08BFF9
:1026C000B2EB410F08D120F0804000EE100A21F05B
:1026D000804100EE901A37E7B2EB400F12BF5FEA7D
:1026E000410240F0FF4001F000413FF42DAF4A00AD
:1026F00092EA40033FF528AF002AACBF9FED1A1ABB
:102700009FED1A1A20EE010A60EE810A10EE100AFF
:1027100010EE901A18E70000DB0FC9BFDB0FC93FAE
:10272000DB0F4940DB0F49C00000C9BF22AAFDB939
:102730000000C93F22AAFD390060ED3EC30ACE3732
:1027400000000000000049C022AA7DBA00004940F4
:1027500022AA7D3A2DAD65BD8FB8D53D0FB511BE0E
:1027600061C84C3EA8AAAABE0000804F0000802F7E
:1027700030EE000A704730EE200A7047DFED020AA3
:1027800080EEA00A70470000000000009FED020AE2
:1027900020EE000A704700000000001002E008C8A8
:1027A000121F08C1002AFAD170477047002001E0CB
:1027B00001C1121F002AFBD17047000001490860C7
:1027C000704700000C0100202DE9FF4F8BB09A46A6
:1027D0000F460546002606E025280BD052460D99E7
:1027E00090476D1C761C28780028F5D10FB0304634
:1027F000BDE8F08F0024A0460122604900E00443B8
:1028000015F8013F203B02FA03F00842F7D128787F
:102810002E2817D115F8010F44F004042A280ED0F1
:102820006FF02F022878A0F1300109290AD808EBAF
:10283000880102EB410100EB01086D1CF2E757F83B
:10284000048B6D1C287869283ED006DC0028CDD08A
:1028500063280BD0642804D136E0732810D0752883
:102860004BD052460D999047761C85E017F8040B23
:102870008DF8000000208DF80100E946012003E0FA
:1028800057F8049B4FF0FF3061074FF0000401D46C
:102890000AE0641C44450DDA8442FADB19F804109E
:1028A0000029F6D106E0641C8442FCDB19F8041010
:1028B0000029F8D1264404E019F8010B52460D997D
:1028C0009047641EF8D257E001CF4FF00A0B002862
:1028D00002DA40422D2102E0210504D52B218DF89A
:1028E0002410012103E0E10705D02021F7E70DF1D5
:1028F000200908910CE00021F9E701CF4FF00A0B05
:10290000F9E75946FDF7CAFC01F1300209F8012D3B
:102910000028F6D1ADEB090000F1200B600701D4CF
:102920004FF00108D84502DDA8EB0B0000E00020C5
:102930008046002406E009A85246005D0D999047A4
:10294000641C761C08988442F5DB04E03020524673
:102950000D999047761CB8F10001A8F10108F5DC4B
:1029600005E019F8010B52460D999047761CBBF112
:102970000001ABF1010BF4DC6D1C34E70928010008
:1029800010B56A48D0ED001A90ED002AB6EE001A94
:1029900001EEC21A6648D0ED001A90ED002A01EE51
:1029A000C21AF0EE410A634890ED001A5F48D0ED7C
:1029B000001A21EE211A5E48D0ED001A5E4890ED13
:1029C000002A01EE821AB0EE410AFFF7A9FDDFED01
:1029D0005B0A20EE200A5A4880ED000A5348D0EDE9
:1029E000000A554890ED001A60EE810A514890EDBA
:1029F000001A4F48D0ED001A41EE610AB8EE001AF5
:102A000060EE810AB0EE600AFFF7F4FCDFED4B0ADE
:102A100020EE200A4B4880ED000A4548D0ED001A10
:102A200090ED002AB6EE001A01EEC21A4248D0ED2F
:102A3000001A90ED002A01EEC21AF0EE410A3B485E
:102A400090ED001A3A48D0ED001A21EE211A3948CB
:102A5000D0ED001A384890ED002A01EE821AB0EE4F
:102A6000410AFFF75DFDDFED350A20EE200A36480A
:102A700080ED000A2F4890ED000ADFED340A20EEC9
:102A8000200ABDEEC00A10EE100A3149086027483E
:102A900090ED000ADFED2D0A20EE200ABDEEC00AFF
:102AA00010EE100A2B490860214890ED000ADFED76
:102AB000270A20EE200ABDEEC00A10EE100A2649B1
:102AC00008601D4890ED000ADFED200A20EE200A84
:102AD000BDEEC00A10EE100A20490860194890EDBA
:102AE000000ADFED1A0A20EE200ABDEEC00A10EE41
:102AF000100A1B490860124890ED000ADFED130A26
:102B000020EE200ABDEEC00A10EE100A154908603A
:102B10000D4890ED000ADFED0D0A20EE200ABDEE13
:102B2000C00A10EE100A1049086010BD24000020F1
:102B300028000020200000202C00002033336542B4
:102B40003400002030000020380000200000C8427F
:102B50003C000020400000204400002048000020ED
:102B600054000020500000204C000020542141431C
:102B7000C8B201E0411EC8B20028FBDC704700006B
:102B800000BF054A128802F04002002AF9D0C2B202
:102B9000014B9A807047000000100140F0EE400A9F
:102BA000F6EE001A60EEA11AB0EE611AB0EE600AFD
:102BB00010EE100A0749A1EB600000EE100A21EEAA
:102BC000002AF7EE081A42EE401A61EE801AB0EEC3
:102BD000610A7047DF59375F1CB5012400F074FEAD
:102BE0000B48012100234A02CDE9001009A10D483C
:102BF00002F0E4F80446012C05D10BA0FFF7D6FB48
:102C000001F0A4FB02E04FF0FF301CBD00BFFEE767
:102C1000580000204170705461736B437265617499
:102C200065000000ED0200084170705461736B4351
:102C30007265617465206372656174652073756384
:102C40006565642E0D0A00002DE9F04105460E462B
:102C50001C4807681C480068001D01F01AF850B9AC
:102C60001948006890F82C1001208840174909681D
:102C7000814316480160681C38B936B112480168B2
:102C8000091D134801F043F81AE07C190E4800684A
:102C90004460BC4207D20C480168091D0D48006819
:102CA00001F01BF80CE008480168091D0A4800689B
:102CB00001F013F809480068844201D20748046013
:102CC000BDE8F081A800002094000020AC000020A6
:102CD000E09300209C00002098000020C400002009
:102CE00010B5044601F020F823480068401C224932
:102CF00008602248006840B920480460084600681F
:102D000001280DD100F01CFB0AE01D48006838B90D
:102D10001A480068C06AE16A884201D8174804600E
:102D200018480068401C1749086094F82C100120CE
:102D3000884015490968084313490860E16A01EBB6
:102D40008101124A02EB8100211D00F0E0FF01F039
:102D50002DF80B48006868B108480068C06AE16A4D
:102D6000884207D24FF0805009490860BFF34F8F67
:102D7000BFF36F8F10BD0000A4000020940000205E
:102D8000B0000020C0000020AC0000201091002006
:102D900004ED00E010B500F0C7FF10480068D0B99E
:102DA0000F4800F08AFF0F4800F087FF0C480E49DB
:102DB00008600C480D490860002210210A2001F02B
:102DC00041FC064908600846006820B108A1034894
:102DD000006801F0D9F800F0E9FF10BDD80000202C
:102DE0004494002058940020D0000020D4000020FB
:102DF000546D72510000000070B523E001F0FEFA3E
:102E00001348006808B9012000E00020054602F0E0
:102E100097F9BDB900F088FF0D48C068C468201D4F
:102E200000F037FF0B480068401E0A4908600A4856
:102E30000068401E0849086000F0B8FF204600F016
:102E400060F800BF044800680028D7D170BD0000BA
:102E5000CC930020A4000020A000002070B5044600
:102E60000D46206C70B1216CE0680844E060616838
:102E7000E068884201D32068E0602846226CE1685F
:102E8000FDF7FAF970BD2DE9F04104460F461546ED
:102E90004FF00008A66B206C40B9206860BB6068EA
:102EA00002F084F880460020606025E07DB9394654
:102EB000226CA068FDF7E0F9216CA0680844A060CE
:102EC000D4E90110884217D32068A06014E0394685
:102ED000226CE068FDF7D0F9216CE068401AE060F0
:102EE0002168E068884203D2216C6068401AE06083
:102EF000022D01D106B1761E701CA0634046BDE8CC
:102F0000F08110B50446206B00F086FF204600F0EB
:102F100083FF10BD0146084A126812680AB90122EF
:102F200000E000220A600A6822B9034A1268D268E7
:102F3000106800E000207047D000002030B54FF44A
:102F40001043174800F007042CB1C01D20F0070003
:102F5000134C041B1B1B0246124C22600024114D13
:102F60006C60D018083820F007000F4C2060002457
:102F70000D4D2D686C600C4D2D682C601146441A67
:102F80004C60094C24680C60084D4C682C60084D5E
:102F90004C682C604FF00044064D2C6030BD0000A2
:102FA0001001002070000020780000208000002028
:102FB0007C0000208400002010B500200F4908602C
:102FC0000F48006820F440000D490860084600687A
:102FD00040F48000086000200A49C1F8AC020220D9
:102FE000FFF7C4FD0120054908600220FFF7BEFD80
:102FF00000200449C1F8A80210BD0000A882404288
:10300000000402400080404210B500200F490860D3
:103010000F48006820F440000D4908600846006829
:1030200040F48000086001200A49C1F8AC02022087
:10303000FFF79CFD0120054908600220FFF796FD7F
:1030400000200449C1F8A80210BD0000A882404237
:10305000000402400080404270B505460024164836
:10306000006820F4400014490860084600680860C1
:10307000002616E00020114908600220FFF776FDC7
:1030800001200F49C1F8A8026006040E0B487C38E5
:10309000006808B1601CC4B20120FFF767FD701C16
:1030A000C6B2082EE6DB15B9FFF7AEFF01E0FFF769
:1030B00083FF204670BD000000040240A882404209
:1030C0000080404270B504461548006820F4400076
:1030D000134908600846006840F48000086000203A
:1030E00010490860002517E0E0090E49091D086035
:1030F0006006040E0220FFF739FD01200A49C1F8DD
:10310000A8020220FFF732FD0020064908600220D5
:10311000FFF72CFD681CC5B2082DE5DB70BD000073
:1031200000040240A88240420080404210B50F488F
:10313000006820F440000D4908600846006840F42B
:103140008000086001200A4908600A49C1F8A80205
:103150000420FFF70BFD0020054908600420FFF75D
:1031600005FD00200349C1F8A80210BD000402407B
:10317000AC8240420080404210B50F48006820F405
:1031800040000D4908600846006840F4800008606F
:1031900000200A4908600A49C1F8AC020420FFF780
:1031A000E5FC0120054908600549C1F8AC0204208E
:1031B000FFF7DCFC10BD000000040240A882404282
:1031C0000080404210B500241348006820F44000FD
:1031D0001149086008460068086001200F4908602E
:1031E000FFF7C4FC01200E49C1F8A802FFF7BEFC9E
:1031F00007E0601CC4B2FA2C03DDFFF7BDFF01201D
:1032000010BD0648803800680028F2D10349091F24
:10321000086000BFF4E7000000040240AC824042B6
:103220000080404200BFFFF7E7FD06480068012824
:10323000F9D94FF0805004490860BFF34F8FBFF3B6
:103240006F8FF0E71091002004ED00E02DE9F041D0
:1032500006460D4617469846069C0DB9246000E0C8
:103260002760E66325640121204601F00DFB002064
:10327000A064BDE8F08100002DE9FF5F81460F46A4
:103280009246DDE90E6B109CAAF10100216B01EB67
:10329000800828F0070808F0070008B9012000E0BE
:1032A000002028B940F22B321BA121A0FFF77EF8A5
:1032B000002507E0795D04F134004155785D00B9DF
:1032C00002E06D1C102DF5D300BF002143200155F5
:1032D000202E00D31F26E66266640020A064201D15
:1032E00000F0F8FC04F1180000F0F4FC2461C6F1D1
:1032F0002000A06164620020E06484F85000494628
:103300004046039A00F090FC2060BBF1000F01D012
:10331000CBF80040BDE8FF9F2E2E5C4672656552DB
:10332000544F535C7372635C7461736B732E6300F0
:103330004572726F723A25732C25640D0A000000E5
:1033400010B5002407E004EB84010F4A02EB810072
:1033500000F0B3FC641C202CF5D30C4800F0ADFC4D
:103360000B4800F0AAFC0B4800F0A7FC0A4800F04C
:10337000A4FC0A4800F0A1FC04480949086004487C
:103380000849086010BD00001091002090930020B3
:10339000A4930020B8930020CC930020E093002059
:1033A000980000209C00002010B50146164800E05F
:1033B000006803688B42FBD30246436813448B4288
:1033C00004D143684C682344436001460A464B6875
:1033D00013440468A34211D10C4C03682468A3422F
:1033E00008D04B680468646823444B6003681B681A
:1033F0000B6005E0054B1B680B6001E003680B6088
:10340000884200D0016010BD7000002078000020CC
:103410002DE9F04104460D4616461F464FF00008C0
:1034200065602461B5420CD8F01BA169884202D3C3
:103430004FF0010811E0211D0948006800F04DFC23
:103440000BE0BE4204D2BD4202D34FF0010804E0BB
:10345000211D0448006800F040FC4046BDE8F081B2
:10346000D4000020D000002070B5054600F05CFCC0
:10347000A86B08B9012400E0002400F097FC204666
:1034800070BD70B5054600F04FFCA86BE96B884233
:1034900001D1012400E0002400F088FC204670BD2A
:1034A00010B50446E006020E1C216820FDF7EEFB75
:1034B00010BD70B50546D5B16A216820FDF788FBBF
:1034C000044624F0200422466A216820FDF7DEFB32
:1034D00008B1012070BD032000F092FD02242246B5
:1034E00037216820FDF7D2FB80B10120F2E76A2185
:1034F0006820FDF76DFB044644F0200422466A2153
:103500006820FDF7C3FB08B10120E3E70020E1E7F5
:1035100010B50446E006020E1B216820FDF7B6FB3D
:1035200010BD70B504460025B82C01DB012510E064
:103530005C2C01DB02250CE0292C01DB032508E0D3
:10354000142C01DB042504E00A2C01DB052500E036
:1035500006252A461A216820FDF798FB70BD70B534
:103560000446B4F57A7F01DD4FF47A74042C00DA56
:1035700004244FF47A7090FBF4F0401EC5B22A4642
:1035800019216820FDF782FB0546264604EBD6711B
:10359000C1F34F00FFF7C5FF70BD00002DE9F341F7
:1035A0000D460098846C00272CB940F6CE121AA163
:1035B0001FA0FEF7FBFEA06BE16B884201D2012049
:1035C00000E0002028B940F6CF1213A118A0FEF7A2
:1035D000EDFEA06BE16B88421BD294F945602A4650
:1035E00069462046FFF74FFC0746701C60B9606AC9
:1035F00008B9012000E0002050B904F1240001F0D6
:1036000043FD28B1012703E0701C40B284F8450057
:1036100000BF3846BDE8FC812E2E5C4672656552BF
:10362000544F535C7372635C71756575652E6300EE
:103630004572726F723A25732C25640D0A000000E2
:10364000F8B505460F4613480068C068C468201DD9
:1036500000F01FFBE069012818D1A06941192B4631
:103660003A462046FFF7D4FE80B1002003462A46A2
:1036700001460090204601F031FE06462EB94FF477
:10368000027205A10BA0FEF791FE00BF2046616A01
:103690008847F8BDD00000202E2E5C46726565522A
:1036A000544F535C7372635C74696D6572732E63FF
:1036B000000000004572726F723A25732C25640D6C
:1036C0000A000000F0B587B070E0039800280CDA1B
:1036D00004AE2EB940F2E7223AA141A0FEF766FE01
:1036E000D6E90020B168904700BF039800285DDB51
:1036F000059C606908B9012000E0002010B9201D78
:1037000000F0C7FA02A800F0C9F8054603980A2895
:103710004AD2DFE800F00905072C2E4506082D2FB8
:1037200000BF00BF00BF00BF0498A2698118034614
:103730002A462046FFF76CFEC0B12046616A8847E2
:10374000E069012812D1002000900498A169421874
:1037500000231946204601F0C1FD07462FB940F26B
:10376000213218A11EA0FEF721FE00BF1DE000BF00
:103770001BE000BF0498A061A06908B1012000E02F
:10378000002028B94FF44E720EA115A0FEF70EFED0
:10379000A06941192B462A462046FFF739FE04E06E
:1037A000204600F039FB00E000BF00BF00231A46AE
:1037B00003A90F48006800F081FF002885D107B0F9
:1037C000F0BD00002E2E5C4672656552544F535C6E
:1037D0007372635C74696D6572732E630000000020
:1037E0004572726F723A25732C25640D0A00000031
:1037F000D8000020F8B505460C4600F0FFFD6846ED
:1038000000F04CF80646009820BB44B9B54206D8F3
:1038100001F096FC31462846FFF712FF1CE03CB150
:103820000E480068006808B9012000E00020044646
:10383000A91B22460A48006800F0BCFB01F080FC8E
:1038400050B94FF0805007490860BFF34F8FBFF366
:103850006F8F01E001F074FCF8BD0000D40000207F
:10386000D800002004ED00E00A490968096809B998
:10387000012100E0002121B14FF0FF31064A116023
:1038800006E004490968C968C868034A41681160CC
:103890007047000098000020C400002070B5044666
:1038A00001F0CCFA054607480068854204D200F0D2
:1038B00015F80120206001E000202060014805602B
:1038C000284670BDE000002010B54FF44070FDF7B1
:1038D0007DFCFDF777F8FEF763FB10BD2DE9F8439B
:1038E0002DE021480068C06805681F480068C0686E
:1038F000C468201D00F0CDF92046616A8847E06960
:1039000001281CD1A0694619AE4207D9666024611E
:10391000211D1548006800F0E0F910E00020034682
:103920002A4601460090204601F0D8FC07462FB9F0
:1039300040F292320DA114A0FEF738FD00BF0A48F4
:103940000068006808B9012000E000200028C8D005
:103950000548D0F8008010480068034908600E4808
:10396000C0F80080BDE8F883D00000202E2E5C4611
:1039700072656552544F535C7372635C74696D6514
:1039800072732E63000000004572726F723A2573E5
:103990002C25640D0A000000D40000200C480068AB
:1039A000401C08B9012000E0002028B940F20F12A5
:1039B00008A112A0FEF7FAFC00BF502080F3118886
:1039C000BFF34F8FBFF36F8F00BF00BFFEE7000054
:1039D000880000202E2E5C4672656552544F535C61
:1039E000706F72745C525644535C41524D5F434D4C
:1039F00034465C706F72742E630000004572726F03
:103A0000723A25732C25640D0A00000008B500BF2A
:103A10006846FFF77FFA044620460099FFF7EAFE62
:103A2000FFF750FEF4E770B5044600F07DF994F915
:103A300045501AE0A06C38B100212046FFF7AEFDDA
:103A400088B100F0A1FB0EE0606A08B9012000E037
:103A5000002038B904F1240001F016FB18B100F081
:103A600093FB00E003E0681E45B2002DE2DC00BFDE
:103A7000FF2084F8450000F099F900F055F994F919
:103A8000445010E0206908B9012000E0002048B946
:103A900004F1100001F0F8FA08B100F075FB681E9F
:103AA00045B200E001E0002DECDC00BFFF2084F80F
:103AB000440000F07BF970BD2DE9F04104464FF061
:103AC000000800F09BFC3E48006808B9FFF736FA92
:103AD0003C480068204000285FD1A4B1083404F0BD
:103AE000070080B104F00700C0F10800044404F0AE
:103AF000070008B9012000E0002020B9BF2232A150
:103B00003AA0FEF753FC002C47D03C4800688442A2
:103B100043D83B4E3046056801E02E462D68686864
:103B2000A04202D228680028F7D1254800688542C3
:103B300033D0306800F10808286830606868001BDE
:103B4000102813D92F1907F0070008B9012000E049
:103B5000002020B9EC221CA124A0FEF727FC6868F5
:103B6000001B78606C603846FFF71EFC23496868CC
:103B70000968081A2149086008460068214909684F
:103B8000884203D21D4800681E4908600D496868D4
:103B90000968084368600020286001F0D1FA08F045
:103BA000070008B9012000E0002028B94FF4967200
:103BB00005A10EA0FEF7FAFB4046BDE8F08100002B
:103BC00078000020840000202E2E5C46726565522D
:103BD000544F535C706F72745C4D656D4D616E67D0
:103BE0005C686561705F342E630000004572726F1F
:103BF000723A25732C25640D0A0000007C00002019
:103C000070000020800000200648006830B105499F
:103C1000096801F14800896C491C0160014800688D
:103C20007047000094000020001F4FF08073036075
:103C3000001F21F001030360001F054B03601438CF
:103C40000260001F6FF0020303602038704700001D
:103C50009D39000810B500EE100A2DED028BB1EE73
:103C6000C08A18EE100A20F00040C0F1FF40C00FDB
:103C70000AD010EE100A20F00040C0F1FF40C00F43
:103C800004BF0120FEF79AFD18EE100ABDEC028B6E
:103C900010BD01460A69D1E901309860D1E90103FC
:103CA00058605068884201D18868506000200861DF
:103CB0001068401E10601068704700F108014160F4
:103CC0004FF0FF31816000F10801C1600161002106
:103CD0000160704700210161704710B502460B6812
:103CE0005C1C0CB9106907E002F1080000E04068B4
:103CF000446824689C42FAD944684C604C68A160CE
:103D0000886041600A611468641C146010BD4268D8
:103D10004A6093688B60936859609160086103689A
:103D20005B1C03607047000010B500BF502080F39B
:103D30001188BFF34F8FBFF36F8F00BF0B48006830
:103D4000401C0A4908600846006801280DD108484F
:103D50000068C0B208B9012000E0002028B940F294
:103D6000B91204A10DA0FEF721FB10BD88000020B0
:103D700004ED00E02E2E5C4672656552544F535C94
:103D8000706F72745C525644535C41524D5F434DA8
:103D900034465C706F72742E630000004572726F5F
:103DA000723A25732C25640D0A00000010B50B48EB
:103DB000006828B94FF4E07209A113A0FEF7F6FAE3
:103DC00006480068401E054908600846006820B99A
:103DD000002080F3118800BF00BF10BD88000020C4
:103DE0002E2E5C4672656552544F535C706F727430
:103DF0005C525644535C41524D5F434D34465C70B7
:103E00006F72742E630000004572726F723A2573F0
:103E10002C25640D0A00000070B506463546002EBC
:103E200035D0083D2C461A4960680968084008B139
:103E3000012000E0002028B94FF4A07215A11EA0B7
:103E4000FEF7B4FA206808B9012000E0002028B984
:103E500040F241120FA118A0FEF7A8FA0C496068C1
:103E60000968084098B1206888B9094960680968FC
:103E70008843606000F0C2FA13496068096808442A
:103E8000114908602046FFF78FFA01F059F970BD1B
:103E9000840000202E2E5C4672656552544F535CA0
:103EA000706F72745C4D656D4D616E675C686561C5
:103EB000705F342E630000004572726F723A257392
:103EC0002C25640D0A0000007C00002006480068D4
:103ED0004FF47A71B0FBF1F0401E4FF0E0214861E1
:103EE0000720086170470000F400002070B5FCF75F
:103EF000ADF90546102D11D305F1E02090F8F043FF
:103F000010480078844201DB012000E0002028B93D
:103F10004FF440720CA116A0FEF748FA184800684A
:103F200000F4E06017490968884201D8012000E0E8
:103F3000002028B94FF4447203A10DA0FEF736FA11
:103F400070BD00008C0000202E2E5C46726565520C
:103F5000544F535C706F72745C525644535C4152C0
:103F60004D5F434D34465C706F72742E63000000E9
:103F70004572726F723A25732C25640D0A00000099
:103F80000CED00E090000020024600200BE0084B02
:103F900053F8303033B9064B43F8301003EBC0030D
:103FA0005A6002E0401C0A28F1D300BF70470000AD
:103FB000F49300202DE9F04105460E4617462C46A5
:103FC000FFF7B2FE94F94400401C10B9002084F8B9
:103FD000440094F94500401C10B9002084F84500C5
:103FE000FFF7E4FEA06B28B93A46314604F12400FD
:103FF00000F0FCF82046FFF716FDBDE8F081000058
:1040000070B504460025ACB10F48006808B901201E
:1040100000E0002028B940F2CF420CA111A0FEF729
:10402000C5F900F0EBF900212046FEF70DFE01F086
:1040300087F805463DB94FF080500E490860BFF340
:104040004F8FBFF36F8F70BDCC0000202E2E5C46CB
:1040500072656552544F535C7372635C7461736B29
:10406000732E63004572726F723A25732C25640DAE
:104070000A00000004ED00E070B50546FFF754FEAD
:1040800015B92D48006800E028460446201DFFF7BA
:1040900000FE78B9E06A00EB8000284951F8200062
:1040A00040B994F82C1001208840254909688143C3
:1040B00023480160A06A18B104F11800FFF7E9FD78
:1040C00020480068401C1F4908601B480068844263
:1040D00009D1211D1C48FFF71AFE1C480068401C2E
:1040E0001A49086009E01A480068401E184908602B
:1040F0002046FEF706FFFFF7B7FBFFF757FE154810
:104100000068C0B10C480068844214D112480068AD
:1041100008B9012000E0002028B940F265420FA153
:1041200014A0FEF743F94FF0805016490860BFF322
:104130004F8FBFF36F8F70BD94000020109100204F
:10414000AC000020C0000020CC930020A000002084
:10415000A4000020B0000020CC0000202E2E5C46E1
:1041600072656552544F535C7372635C7461736B18
:10417000732E63004572726F723A25732C25640D9D
:104180000A00000004ED00E00120014908607047CA
:10419000B800002070B504460D462CB940F6063232
:1041A00007A10DA0FEF702F90F480168183120465B
:1041B000FFF793FD01212846FEF746FD70BD000084
:1041C0002E2E5C4672656552544F535C7372635C6D
:1041D0007461736B732E63004572726F723A25734C
:1041E0002C25640D0A0000009400002070B50546DF
:1041F0000E4614462DB940F6313209A10EA0FEF745
:10420000D5F81148016818312846FFF780FD0CB138
:104210004FF0FF3621463046FEF716FD70BD000018
:104220002E2E5C4672656552544F535C7372635C0C
:104230007461736B732E63004572726F723A2573EB
:104240002C25640D0A0000009400002070B505467E
:104250002C46002D4BD02649E06A0968C96A88427D
:1042600045D2A06900F0004028B921480068C06A22
:10427000C0F12000A061E16A01EB81011D4A02EB5F
:1042800081016069884201D1012000E0002050B323
:10429000201DFFF7FEFC78B9E06A00EB80001549AD
:1042A00051F8200040B994F82C10012088401249A0
:1042B00009688143104801600D480068C06AE062E7
:1042C00094F82C10012088400B49096808430A49DA
:1042D0000860E16A01EB8101064A02EB8100211DC1
:1042E000FFF715FD03E002480068C06AE06270BD98
:1042F0009400002010910020AC00002010B504466E
:104300002CB940F6C13205A10AA0FEF74FF80D48BE
:10431000006820600C480068606010BD2E2E5C466E
:1043200072656552544F535C7372635C7461736B56
:10433000732E63004572726F723A25732C25640DDB
:104340000A000000BC000020A80000201CB51A488C
:1043500000210B468022CDE9001018A1194800F079
:104360002DFD0446012C02D100F07CFF0446012CF7
:1043700015D100BF502080F31188BFF34F8FBFF3DA
:104380006F8F00BF4FF0FF300F49086001200F49C9
:10439000086000200E49086000F08EF80BE0601CF9
:1043A00008B1012000E0002028B940F2847209A180
:1043B0000EA0FDF7FBFF1CBDC800002049444C4582
:1043C0000000000025320008C4000020B0000020DA
:1043D000A80000202E2E5C4672656552544F535C37
:1043E0007372635C7461736B732E63004572726FDA
:1043F000723A25732C25640D0A00000002480068FB
:10440000401C014908607047CC00002010B51B48D3
:10441000006818B101201A4908602DE000201849F1
:10442000086018480068B0FA80F0C0F11F0404EB7F
:104430008400154951F8200008B1012000E0002057
:1044400028B940F6F62211A116A0FDF7AFFF04EB44
:1044500084010D4A02EB810041684968416000F126
:10446000080142688A4202D1416849684160416856
:10447000C968104A116000BF10BD0000CC000020C8
:10448000B8000020AC000020109100202E2E5C46C9
:1044900072656552544F535C7372635C7461736BE5
:1044A000732E63004572726F723A25732C25640D6A
:1044B0000A000000940000201CB5404800684049F4
:1044C000884201D0012000E0002028B940F25912B2
:1044D0003CA146A0FDF76AFF384800683849491EEC
:1044E000884201D0012000E0002028B94FF4AD72CD
:1044F00034A13EA0FDF75AFF404C204600780190C1
:10450000FF20214608700846007800909DF80000C2
:1045100000F0F0009DF80010884201D1012000E079
:10452000002028B940F2731226A130A0FDF73EFF0B
:104530009DF8000000F05000314908700720314913
:10454000086009E02F480068401E2E4908609DF869
:1045500000004006000E00909DF8000000F0800072
:104560008028EFD0274800680002264908600846E6
:10457000008800F4E06008602049019808700F4846
:104580002030006840F470000C4920310860084673
:10459000006840F070400860FFF798FC00201A495E
:1045A0000860FBF71BFE1948006840F040401749BF
:1045B0000860FBF703FE00201CBD000000ED00E0DA
:1045C00071C20F412E2E5C4672656552544F535C8A
:1045D000706F72745C525644535C41524D5F434D50
:1045E00034465C706F72742E630000004572726F07
:1045F000723A25732C25640D0A00000000E400E0E7
:104600008C000020900000208800002034EF00E0A3
:1046100010B500BF502080F31188BFF34F8FBFF358
:104620006F8F00BF00F010FC18B14FF080500449AC
:10463000086000BF002080F3118800BF10BD00009B
:1046400004ED00E02DE9F84305460E4690460DB115
:10465000012000E0002028B94FF4C4720DA113A07E
:10466000FDF7A4FE0EB9002701E005FB06F707F1F0
:104670004C00FFF721FA044644B104F14C094346CB
:104680004A46314628460094FEF7E0FD2046BDE844
:10469000F88300002E2E5C4672656552544F535CC1
:1046A0007372635C71756575652E63004572726F18
:1046B000723A25732C25640D0A0000002DE9FF478E
:1046C00082B005460E461F464FF0000A2C462CB914
:1046D00040F2DC4261A167A0FDF768FE0EB9206CD4
:1046E00008B9012000E0002028B940F2DD425BA1BA
:1046F00060A0FDF75BFE00F091FB08B9049808B9D3
:10470000012000E0002028B94FF49C6253A159A079
:10471000FDF74CFE00BFFFF707FBD4F83890B9F166
:10472000000F3DD0D4F80C8031462046FEF796FBB2
:10473000DFB9A9F10100A063206810B9FFF764FA9E
:104740006060206908B9012000E0002010BB04F17E
:10475000100000F099FCE8B14FF080504949086022
:10476000BFF34F8FBFF36F8F14E0C4F80C80606A03
:1047700008B9012000E0002060B904F1240000F035
:1047800083FC38B14FF080503E490860BFF34F8F33
:10479000BFF36F8FFFF70AFB012006B0BDE8F0877B
:1047A000049818B9FFF702FB0020F6E7BAF1000FF2
:1047B00004D16846FFF7A2FD4FF0010AFFF7F6FAB1
:1047C000FFF71CFEFFF7B0FA94F94400401C10B943
:1047D000002084F8440094F94500401C10B90020E2
:1047E00084F84500FFF7E2FA04A9684600F094FA5D
:1047F00040BB2046FEF738FEF0B1206830B9FFF725
:1048000093FA6068FFF722FDFFF7D0FA04F1240065
:104810000499FFF7BFFC2046FFF705F900F090FC74
:1048200000287FF478AF4FF0805016490860BFF33E
:104830004F8FBFF36F8F6EE72046FFF7F4F800F05D
:104840007FFC68E72046FFF7EEF800F079FC204691
:10485000FEF70AFE0028EED000209EE72E2E5C46D2
:1048600072656552544F535C7372635C7175657504
:10487000652E63004572726F723A25732C25640DA4
:104880000A00000004ED00E070B505460E462C4617
:104890002CB940F21B121EA123A0FDF787FDFFF7E4
:1048A00043FAD4E90F12206801FB02006060002087
:1048B000A0632068A060E06B401E226C216800FBB2
:1048C0000210E060FF2084F8440084F845009EB99F
:1048D000206908B9012000E00020A8B904F1100007
:1048E00000F0D2FB80B14FF0805013490860BFF355
:1048F0004F8FBFF36F8F07E004F11000FFF7DDF972
:1049000004F12400FFF7D9F9FFF750FA012070BD38
:104910002E2E5C4672656552544F535C7372635C15
:1049200071756575652E63004572726F723A2573F5
:104930002C25640D0A00000004ED00E02DE9FF4382
:1049400083B0064688461D464FF0000934462CB910
:1049500040F2D92260A166A0FDF728FDB8F1000F52
:1049600001D1206C08B9012000E0002028B940F2F4
:10497000DA2259A15EA0FDF719FD022D02D1E06BEC
:10498000012801D1012000E0002028B940F2DB22FB
:1049900051A157A0FDF70AFD00F040FA08B90598AB
:1049A00008B9012000E0002028B940F2DE224AA127
:1049B0004FA0FDF7FBFC00BFFFF7B6F9A06BE16B62
:1049C000884201D3022D38D12A4641462046FEF7BF
:1049D0005AFA0746A06C68B129462046FEF7DEFD6C
:1049E00028B34FF0805046490860BFF34F8FBFF3A4
:1049F0006F8F1CE0606A08B9012000E0002068B9F0
:104A000004F1240000F040FB88B14FF080503C4995
:104A10000860BFF34F8FBFF36F8F08E03FB14FF0D7
:104A2000805037490860BFF34F8FBFF36F8FFFF798
:104A3000BDF9012007B0BDE8F083059818B9FFF76C
:104A4000B5F90020F6E7B9F1000F04D101A8FFF78E
:104A500055FC4FF00109FFF7A9F9FFF7CFFCFFF76D
:104A600063F994F94400401C10B9002084F8440014
:104A700094F94500401C10B9002084F84500FFF768
:104A800095F905A901A800F047F9F0B92046FEF70D
:104A9000F8FCA0B104F110000599FFF77BFB20465C
:104AA000FEF7C1FF00F04CFB002885D14FF080508D
:104AB00013490860BFF34F8FBFF36F8F7CE7204629
:104AC000FEF7B1FF00F03CFB76E72046FEF7ABFFB8
:104AD00000F036FB0020ADE72E2E5C467265655275
:104AE000544F535C7372635C71756575652E63001A
:104AF0004572726F723A25732C25640D0A0000000E
:104B000004ED00E02DE9F05F80468A4615461E461A
:104B100044462CB940F29F3235A13BA0FDF746FC3C
:104B2000BAF1000F01D1206C08B9012000E000208B
:104B300028B94FF468722EA133A0FDF737FC022E7E
:104B400002D1E06B012801D1012000E0002028B94A
:104B500040F2A13226A12CA0FDF728FCFFF7C6F9F0
:104B600000BF5021EFF3118081F31188BFF34F8F05
:104B7000BFF36F8F00BF0746A06BE16B884201D384
:104B8000022E2BD194F945B0324651462046FEF70D
:104B90007AF90BF10100C8B9A06C40B1314620464A
:104BA000FEF7FCFCB8B1B5B10120286013E0606AE3
:104BB00008B9012000E0002068B904F1240000F0E9
:104BC00063FA40B13DB10120286004E00BF101001F
:104BD00040B284F845004FF0010901E04FF00009B0
:104BE00000BF87F3118800BF4846BDE8F09F000072
:104BF0002E2E5C4672656552544F535C7372635C33
:104C000071756575652E63004572726F723A257312
:104C10002C25640D0A0000002DE9F04707460D46DB
:104C20003C462CB940F23C4231A137A0FDF7BEFB17
:104C3000206C08B9012000E0002028B94FF48862F8
:104C40002BA131A0FDF7B2FB206808B9606808B954
:104C5000012000E0002028B940F2454224A12AA00A
:104C6000FDF7A4FBFFF742F900BF5021EFF31180DD
:104C700081F31188BFF34F8FBFF36F8F00BF0646DC
:104C8000D4F83890E06B484529D994F945A009F14A
:104C90000100A0630AF10100C8B9A06C40B1002175
:104CA0002046FEF77BFCB8B1B5B10120286013E0C7
:104CB000606A08B9012000E0002068B904F124000E
:104CC00000F0E2F940B13DB10120286004E00AF1B2
:104CD000010040B284F845004FF0010801E04FF0B8
:104CE000000800BF86F3118800BF4046BDE8F0878A
:104CF0002E2E5C4672656552544F535C7372635C32
:104D000071756575652E63004572726F723A257311
:104D10002C25640D0A0000002DE9F04104460D46E3
:104D20002CB940F6CB3219A11EA0FDF73FFB2DB9DF
:104D300040F6CC3215A11BA0FDF738FBFEF7F4FFBF
:104D40001C4807682868401C08B9002619E01A4961
:104D500020680968884204D06068B84201D80126FA
:104D60000FE06068381A2968884209D228686168AB
:104D7000791A401A28602046FFF7C0FA002600E0A2
:104D80000126FFF713F83046BDE8F0812E2E5C4671
:104D900072656552544F535C7372635C7461736BDC
:104DA000732E63004572726F723A25732C25640D61
:104DB0000A000000A8000020BC0000202DE9FF4FE1
:104DC00085B0804689461746DDE912ABB800FEF78C
:104DD00073FE064656B15420FEF76EFE04460CB133
:104DE000266304E03046FFF717F800E000247CB1AA
:104DF0000020CDE900ABCDE902403A4649464046A5
:104E0000089BFEF739FA2046FDF76AFF012501E00D
:104E10004FF0FF35284609B0BDE8F08F0549096815
:104E200009B9012005E00449096809B9022000E038
:104E300000207047B0000020CC0000200149086825
:104E400070470000A80000202DE9F0414FF0000855
:104E500041480068002872D140480068451C3F481E
:104E60000560EDB93E480068006808B9012000E01F
:104E7000002028B940F6D9123AA140A0FDF796FAD1
:104E80003748076841480068354908603F4807606F
:104E90003F480068401C3E490860FEF7E5FC00BF43
:104EA0003C48006885423CD300BF2D48006800683C
:104EB00008B9012000E0002020B14FF0FF30354953
:104EC00008602DE026480068C068C4686668B5427E
:104ED00002D23048066023E0201DFEF7DAFEA06A09
:104EE00018B104F11800FEF7D4FE94F82C1001203C
:104EF000884029490968084327490860E16A01EBAD
:104F00008101264A02EB8100211DFEF700FF2449A2
:104F1000E06A0968C96A8842C7D34FF00108C4E74C
:104F200000BF1F480068C06A00EB80001B4951F8B1
:104F30002000012801D94FF0010805E0FFE71948DA
:104F40000068401C174908601748006808B14FF016
:104F500001084046BDE8F081CC000020A8000020F8
:104F6000980000202E2E5C4672656552544F535CAB
:104F70007372635C7461736B732E63004572726F3E
:104F8000723A25732C25640D0A0000009C00002055
:104F9000BC000020C4000020AC00002010910020C4
:104FA00094000020B4000020B800002070B5054631
:104FB0002C460026002D4BD026480068844201D1A3
:104FC000012000E0002028B940F6C76222A128A0F5
:104FD000FDF7ECF9A06C28B940F6C9621EA124A027
:104FE000FDF7E4F9A06C401EA064616CE06A8842A1
:104FF0002ED0A06C60BB201DFEF74BFE78B9E06A96
:1050000000EB80001E4951F8200040B994F82C10A4
:10501000012088401B49096881431A480160606C7F
:10502000E062E06AC0F12000A06194F82C10012039
:10503000884014490968084312490860E16A01EB95
:1050400081010F4A02EB8100211DFEF760FE01265F
:10505000304670BD940000202E2E5C46726565526D
:10506000544F535C7372635C7461736B732E630093
:105070004572726F723A25732C25640D0A00000088
:1050800010910020AC00002070B50646F068C4689E
:105090002CB940F661321AA11FA0FDF787F904F17F
:1050A0001800FEF7F6FD20480068A8B9201DFEF79D
:1050B000F0FD94F82C10012088401C490968084331
:1050C0001A490860E16A01EB8101194A02EB81008B
:1050D000211DFEF71CFE04E004F118011548FEF73F
:1050E00016FE1549E06A0968C96A884204D9012593
:1050F00001201249086000E00025284670BD00002C
:105100002E2E5C4672656552544F535C7372635C1D
:105110007461736B732E63004572726F723A2573FC
:105120002C25640D0A000000CC000020AC000020FB
:1051300010910020B893002094000020B8000020B7
:1051400070B5002400263448006828B94FF4FD6289
:1051500032A138A0FDF72AF9FEF7E6FD2E480068D7
:10516000401E2D4908600846006800284FD1354888
:10517000006800284BD024E03348C068C46804F1BC
:105180001800FEF786FD201DFEF783FD94F82C1015
:10519000012088402D49096808432C490860E16ACC
:1051A00001EB81012A4A02EB8100211DFEF7AFFDD0
:1051B0002849E06A0968C96A884202D30120264961
:1051C00008602148006808B9012000E0002000289C
:1051D000D2D00CB1FEF748FB2048056865B100BF8E
:1051E000FFF732FE10B101201B4908606D1E002D33
:1051F000F6D10020194908601748006838B1012627
:10520000300717490860BFF34F8FBFF36F8FFEF76A
:10521000CDFD304670BD0000CC0000202E2E5C4637
:1052200072656552544F535C7372635C7461736B47
:10523000732E63004572726F723A25732C25640DCC
:105240000A000000A4000020B8930020AC00002059
:105250001091002094000020B8000020B40000202D
:1052600004ED00E01CB50024FDF794FD0B48006838
:1052700058B10B481F2100234FF48072CDE9001074
:1052800008A10A48FFF79AFD04462CB940F23312F0
:1052900007A10EA0FDF78AF820461CBDD80000200B
:1052A000DC000020546D7220537663000D3A000834
:1052B0002E2E5C4672656552544F535C7372635C6C
:1052C00074696D6572732E63000000004572726F21
:1052D000723A25732C25640D0A0000002DE9FF4762
:1052E00004460D4616461F46DDF830804FF0000993
:1052F0002CB94FF4D37217A11DA0FDF757F8204821
:10530000006810B3009501960294062D15DAFFF798
:1053100085FD022808D100234246694618480068E6
:10532000FFF70CFB814610E000231A46694614483B
:105330000068FFF703FB814607E000233A46694611
:105340000F480068FFF7DEFB8146484604B0BDE821
:10535000F08700002E2E5C4672656552544F535CF8
:105360007372635C74696D6572732E630000000074
:105370004572726F723A25732C25640D0A00000085
:10538000D8000020A45300080000002010010000F5
:105390009C270008B454000810010020609700000A
:1053A000AC270008F1FFFCFFF5FF2400C800ECFE6D
:1053B0000000803FE02D703F8B6C673F00000000D5
:1053C000CDCCCC3D0000803F00000000000000007C
:1053D00000000000000000000000000000000000CD
:1053E00000000000000000000000000000000000BD
:1053F00000000000000000000000000000000000AD
:10540000000000000000000000000000000000009C
:10541000000000000000000000000000000000008C
:10542000000000000000000000000000AAAAAAAAD4
:10543000000000000000000000000000000000006C
:10544000000000000000000000000000000000005C
:10545000000000000000000000000000000000004C
:10546000000000000000000000000000000000003C
:10547000000000000000000000000000000000002C
:105480000000000000000000000000000102030412
:105490000102030406070809007A030A000000005D
:1054A00000000000010203040607080900000000D4
:0454B00000000000F8
:040000050800018965
:00000001FF
